:020000004F2C83
:10000600103083120313FD00FD0B072800000800C3
:10001600083083120313FC002330FD00FD0B11286A
:06002600FC0B112808008C
:04002C0000000800C8
:1000300083120313E31B1E2887111F288715631BD8
:100040002328071124280715E31A282887102928B0
:100050008714631A2D2807102E28071454183228E5
:10006000071633280712871616208712E3193A2835
:1000700087113B28871563193F280711402807156A
:10008000E318442887104528871463184928071067
:100090004A28071454184E2807164F2807128716A7
:1000A00016208712541C56280B20572803200800BE
:1000B0008312031354106208E3001820541408003C
:1000C00083120313F801F9011030FC00710DF80DD3
:1000D000F90D7408F8027508031C750FF90203186E
:1000E00078287408F80775080318750FF9070310C6
:0A00F000F00DF10DFC0B662808006E
:1000FA008F28803083120313DE00A228C030DE006E
:10010A00A2289430DE00A228D430DE00A228803053
:10011A00DE00A228831203135E08013A03197E281F
:10012A005E08023A031983285E08033A03198628EF
:10013A005E08043A031989288C285F03F0005E08D8
:10014A00F0077008DE007008E30018205410E1017F
:10015A0061086007840000080319BB28610860076A
:10016A0084000008E2005820E10AAD28541408006F
:0E017A008312031351088A0050088200080007
:0E018800073083120313FD00FD0BC82808008A
:10019600103083120313F4002730F5005208F000E4
:1001A6005308F1006020700871040319EC28320826
:1001B600DB001030F4002730F5005208F000530839
:1001C600F10060203030F0075B0884007008800082
:1001D600F0283208840020308000320ADB00E83044
:1001E600F4000330F5005208F0005308F1006020D7
:1001F6000A30F4000030F50060207808F000790835
:10020600F1003030F0075B0884007008800002308F
:100216003207DB006430F4000030F5005208F000CD
:100226005308F10060200A30F4000030F500602029
:100236007808F0007908F1003030F0075B08840098
:100246007008800004303207DB000A30F40000300A
:10025600F5005208F0005308F10060200A30F4005F
:100266000030F50060207808F0007908F1003030A1
:10027600F0075B088400700880000230DE00013061
:10028600DF003208E0007D201030F4002730F50052
:100296005908F0005A08F10060207008710403192B
:1002A60066293308DB001030F4002730F5005908C2
:1002B600F0005A08F10060203030F0075B08840037
:1002C600700880006A293308840020308000330AD1
:1002D600DB00E830F4000330F5005908F0005A0856
:1002E600F10060200A30F4000030F5006020780844
:1002F600F0007908F1003030F0075B0884007008E0
:10030600800002303307DB006430F4000030F50073
:100316005908F0005A08F10060200A30F400003055
:10032600F50060207808F0007908F1003030F00719
:100336005B0884007008800004303307DB000A3055
:10034600F4000030F5005908F0005A08F10060206A
:100356000A30F4000030F50060207808F0007908D3
:10036600F1003030F0075B0884007008800002302E
:0E037600DE000A30DF003308E0007D200800C2
:1003840083120313FB01FA01F9018030F800F10C28
:10039400F00C031CD6297408F90775080318750FA7
:1003A400FA070318FB0A0310F01FDE297408FA0782
:1003B40075080318750FFB07FB0CFA0CF90CF80C05
:1003C400031CC9297B08F3007A08F2007908F100BC
:0603D4007808F0000800AB
:1003DA0083120313FB01FA01F901F801A001730D5D
:1003EA00F80D7408F8027508031C750FF9027608EF
:1003FA00031C760FFA027708031C770FFB02000131
:10040A00031C0130A002F30D0730FC00730DF80D38
:10041A00F90DFA0DFB0DA00D7408731C262AF802BB
:10042A007508031C750FF9027608031C760FFA0289
:10043A007708031C770FFB020001031C0130A0029E
:10044A00372AF80775080318750FF907760803188D
:10045A00760FFA0777080318770FFB0700010318CE
:10046A000130A007F30DFC0B0B2A720DF80DF90DE4
:10047A00FA0DFB0DA00D7408731C552AF8027508B5
:10048A00031C750FF9027608031C760FFA02770827
:10049A00031C770FFB020001031C0130A002662A2D
:1004AA00F80775080318750FF90776080318760F09
:1004BA00FA0777080318770FFB07000103180130C2
:1004CA00A007F20D0730FC00720DF80DF90DFA0DB8
:1004DA00FB0DA00D7408721C842AF8027508031C0F
:1004EA00750FF9027608031C760FFA027708031CC7
:1004FA00770FFB020001031C0130A002952AF807BE
:10050A0075080318750FF90776080318760FFA07A6
:10051A0077080318770FFB07000103180130A007BB
:10052A00F20DFC0B692A710DF80DF90DFA0DFB0D90
:10053A00A00D7408721CB32AF8027508031C750F03
:10054A00F9027608031C760FFA027708031C770F64
:10055A00FB020001031C0130A002C42AF807750837
:10056A000318750FF90776080318760FFA07770844
:10057A000318770FFB07000103180130A007F10DDC
:10058A000730FC00710DF80DF90DFA0DFB0DA00DE9
:10059A007408711CE22AF8027508031C750FF90227
:1005AA007608031C760FFA027708031C770FFB0202
:1005BA000001031C0130A002F32AF807750803188A
:1005CA00750FF90776080318760FFA0777080318E4
:1005DA00770FFB07000103180130A007F10DFC0B90
:1005EA00C72A700DF80DF90DFA0DFB0DA00D740850
:1005FA00711C112BF8027508031C750FF902760895
:10060A00031C760FFA027708031C770FFB0200011E
:10061A00031C0130A002222BF80775080318750F76
:10062A00F90776080318760FFA0777080318770F81
:10063A00FB07000103180130A007F00D0730FC008A
:10064A00700DF80DF90DFA0DFB0DA00D7408701C54
:10065A00402BF8027508031C750FF9027608031C73
:10066A00760FFA027708031C770FFB020001031CBE
:10067A000130A002512BF80775080318750FF90706
:10068A0076080318760FFA0777080318770FFB071F
:10069A00000103180130A007F00DFC0B252B701880
:1006AA00642B7408F80775080318750FF90776089C
:1006BA000318760FFA0777080318770FFB07080065
:1006CA00831203132230FC00F801F901FA01FB013D
:1006DA00FC0303199B2B0310FB0CFA0CF90CF80C06
:1006EA00F30CF20CF10CF00C031C6D2BFC03031938
:1006FA008D2B7408F80775080318750FF907760823
:10070A000318760FFA0777080318770FFB07712B80
:10071A007408F80775080318750FF907760803189F
:0E072A00760FFA0777080318770FFB07080011
:10073800BD208A110A128000840AD00A0319D10A3E
:08074800F003031D9C2B0800C7
:10075000BA2B803083120313DB00CD2BC030DB00BB
:10076000CD2B9430DB00CD2BD430DB00CD2B803073
:10077000DB00CD2B831203135B08013A0319A92B6D
:100780005B08023A0319AE2B5B08033A0319B12B3D
:100790005B08043A0319B42BB72B5C03F0005B0829
:1007A000F0077008DB0054147008E30018205410A0
:0A07B0005D08E3001820541408004F
:1007BA00C330831203139F0540309F05F030831620
:1007CA009F0483129F175B08F000F00D7010F00D64
:1007DA00701070089F041F14C4209F149F1CF72BCD
:1007EA000000F32B1F101E08F100F00183161E08EB
:0807FA00F0040030F1040800D6
:100802008316031387120712071087100711871127
:1008120083128712071287110711871007100B2006
:100822000B200B20871407148716162087120B2023
:100832008716162087120B208716162087120B2088
:1008420007108716162087120B208716162087128C
:10085200871087158716162087120B208711071419
:1008620087161620871207108716162087120B206C
:1008720087161620871207148716162087120B2058
:100882000710871616208712871507158714071475
:0C0892008716162087120B205414080053
:10089E0028250430831603139100483083129F00DD
:1008AE0007309900831687010E3085000124013030
:1008BE00E30018200C30E30018200130DE00013078
:1008CE00DF003430E0007D200630FB001330FC00EA
:1008DE00AD30FD00FD0B712CFC0B712CFB0B712C44
:1008EE00000000000130DE000130DF002130E000AA
:1008FE007D200230DB000630DC00DF30DD00A82377
:10090E000230DB000F30DC00DF30DD00A8230230C8
:10091E00DB000730DC004330DD00A8230230DB00B3
:10092E001030DC004630DD00A8230230DB00DD2372
:10093E0070088312D5007108D600D701D80155086A
:10094E00F0005608F1005708F2005808F3009530F1
:10095E00F4000430F500F601F70165237008D500A8
:10096E007108D6007208D7007308D800E830F4007A
:10097E000330F500F601F701ED217008D200710881
:10098E00D3000A30F4000030F500C2217008D20006
:10099E007108D3000930F4000030F500C221053093
:1009AE00F4000030F500602080307007D900710827
:1009BE000318013E0C3EDA00CB200630FB0013304C
:1009CE00FC00AD30FD00FD0BEA2CFC0BEA2CFB0B02
:0A09DE00EA2C000000009C2CF32C12
:100A5000213084002F3083120313F000F930D000CE
:080A60000430D1009C230800C2
:1009F20052346F346F346D342034543465346D3472
:100A020070346534723461347434753472346534DC
:020A12000034AE
:020A14004A3462
:020A1600443466
:100A18004C3443344434203449346E3469347434A7
:100A2800693461346C3469347A346534643400343C
:0C0A38003034303430342E34303400348C
:0C0A44003034303430342E343034003480
:02400E00F20FAF
:00000001FF
